:200000000C9495010C9400000C9400000C9400000C9400000C9400000C9400000C9400004A
:200020000C9400000C9400000C94BE040C9400000C9400000C9400000C9400000C940000FE
:200040000C94DE040C9400000C9400000C9400000C9400000C9400000C9400000C940000BE
:200060000C9400000C9400000C9400000C9400000C9400000C9400000C9400000C94000080
:200080000C9400000C9400000C94000070727A6563686F647A695F6B7562656B00637A618F
:2000A000735F6B726F6B7500706F62696572616D5F62616E6465726F6C650070727A656ABD
:2000C000617A645F6E61645F6B6C656A656D006E616B6C656A616D006F6B6C656A616E69E8
:2000E000655F626F637A6E65004F4E4C494E452D484153534F00534C4F57004F4E4C494E86
:20010000452D3235300046415354004F4E4C494E452D4348414F53004F4E4C494E452D5501
:200120004C54494D415445004252414B205759424F5255004B55424B4100474C5545204C80
:200140004F41444544004C4F414420474C5545004272616B2077796D6167616E65676F20E6
:2001600063699C6E69656E6961203720626172005475726E206F666620616E642063686550
:20018000636B2073747265616D657273004E554D4552004441574B41204B4C454A55000011
:2001A00001002D4E414E00494E46000080C0110000058C000B0011059D0013001C05A800DB
:2001C00014002F05BB0009004305CF0011004C05D80011005D058C000B006E059D00130095
:2001E0007905A80014008C05BB000900A005CF001100A905D8001100BA05D8001100CB05DC
:20020000D8000D00DC05E9000500E905F6000B00EE05FB000500F905F6000D00FE05E9005B
:2002200005000B0606010B001006FB0005001B0606010D0020060B0105002D0606010D00CD
:2002400032060B0105003F06F6000D004406E9000500510606011000560618010500660681
:2002600006010D006B060B010500780606010C007D0628010600890634010C008F063A0105
:200280000A009B0646011300A506A8000900B806CF002000C10650011D00E10670011300B0
:2002A000FE06A80013001107A80013002407A80013003707A80013004A07A80013005D075D
:2002C000A80013007007A80013008307A80013009607A8001300A907A8001300BC07A800BE
:2002E0001300CF07A8001300E207A8000900F507CF000900FE07CF0009000708CF00090028
:200300001008CF00060019088D010C001F08930106002B088D010C00310893010100C5080C
:20032000A0010200C908AC010000F894EE27ECBBF1E0F5BFE5BFE0936C00F8E1F1BDE1BD27
:200340008DE0A2E0BB27ED938A95E9F780E090E1A0E0B1E0ED930197E9F7EEEAF1E08591B4
:200360009591009761F0A591B59105901590BF01F00105900D920197E1F7FB01F0CF8BBF5F
:20038000EFEFEDBFE0E1EEBFC0E0D5E00C9449090E94140CE0E0F5E00E94190C51F40E9419
:2003A0001F0CE0934908F0934A0860934B0870934C080E94140CE1E1F5E00E94190C51F477
:2003C0000E941F0CE0934D08F0934E0860934F08709350080E94140CECE1F5E00E94190CDF
:2003E00051F40E941F0CE0935108F093520860935308709354080E94140CEFE2F5E00E948B
:20040000190C51F40E941F0CE0935508F093560860935708709358080E94140CE3E4F5E0E1
:200420000E94190C51F40E941F0CE0935908F0935A0860935B0870935C080E94140CECE4DB
:20044000F5E00E94190C51F40E941F0CE0935D08F0935E0860935F0870936008E6C2249705
:200460000E94280CEDE5F5E00E94190C51F4A0914908B0914A0880914B0890914C080E9463
:200480002D0C0E94280CEEE6F5E00E94190C51F4A0914D08B0914E0880914F08909150089A
:2004A0000E942D0C0E94280CE9E7F5E00E94190C51F4A0915108B091520880915308909128
:2004C00054080E942D0C0E94280CECE8F5E00E94190C51F4A0915508B091560880915708BD
:2004E000909158080E942D0C0E94280CE0EAF5E00E94190C51F4A0915908B0915A088091D9
:200500005B0890915C080E942D0C0E94280CE9EAF5E00E94190C51F4A0915D08B0915E0851
:2005200080915F08909160080E942D0C0E941010E1C21A930A9300E010E00E94330C0E94DD
:200540003E0CE1E00E94E30FE02199F0E0E0E0939108E09392080E94460CE4E4F6E00E9465
:20056000530C0E94570CE1E5F6E00E94530C01E010E00E94330C0E945D0CA0E0B599A1E06E
:200580000E94620C81F0E1E0F0E00E94670CE6E5F6E00E94530C0E94570CE6E6F6E00E9449
:2005A000530C01E010E0A0E0B399A1E00E946C0CA0E0B499A1E00E943E0C0E94620C81F0E9
:2005C000E2E0F0E00E94670CEBE6F6E00E94530C0E94570CE8E7F6E00E94530C01E010E050
:2005E000002E012A69F40E94710CEDE7F6E00E94530C0E94570CE9E8F6E00E94530CFFCF00
:20060000099119910895A0E09E99A1E00E946C0CA091BF08B091C0080E94780CE021B1F0DE
:20062000E1E0F0E0E093BF08F093C008AFE8B8E0ED91FD913196FE93EE930E947D0C1897B6
:200640002CF0E0E0E0938F08E0939008A0E09E99A1E00E94820CA091BF08B091C0080E949E
:20066000870CE02129F0E0E0E093BF08E093C00808959C9923C0A0918908B0918A081197A6
:2006800031F40E94710CEFE8F6E00E94530CE0E0E0938908E0938A080E948C0CE1E0F0E0D4
:2006A000E0938508F09386080E94930C0E94241024F4ADE6B8E00E94A40C1FC0A0918B08DA
:2006C000B0918C08119731F40E94710CEBE9F6E00E94530C0E94AD0CE0E0E0936D08E09338
:2006E0006E08E0936F08E0937008E0938B08E0938C08E0938508E093860808950E94B40CA2
:20070000A0E0B099A1E00E946C0CD5010E94780C0E94BE0C0E94870CE029B1F0A09187086E
:20072000B09188080E94780C0E2EA091BB08B091BC080E94870CE02131F09298E0E0E093D9
:20074000BB08E093BC084BC0929949C00E94C40CA035E3ECBE07E0E08E07E0E09E071CF4BB
:200760000E94CD0CF3CF0E94C40CA03AE6E8BE07E1E08E07E0E09E0734F40E94CD0CDF9888
:200780000E94D00CF0CF0E94C40CA03CE4EDBE07E1E08E07E0E09E072CF40E94CD0C0E9440
:2007A000D00CF1CF0E94C40CA839EBEABE07E2E08E07E0E09E072CF40E94CD0C0E94D00CDB
:2007C000F1CF929A0E94D60CE0E0E0936908E0936A08E0936B08E0936C080E94E00C089528
:2007E0000E94EB0C0E94870C0E94F00C0E94620C31F1A0E0B699A1E00E946C0C0E94F50C4E
:200800000E94780CE02121F00E94D60C0E94FA0C0E94F50C0E94870C0E94010DE0E1F7E252
:2008200060E070E00E94FE0FE02149F00E94D60C0E940B0DE0E0E093BD08E093BE08A0E050
:20084000B699A1E00E946C0C0E94F50C0E94780C0E22A0E0B099A1E00E945D0C0E94EB0CC7
:200860000E94780CE02121F00E94D60C0E94FA0C0E94F50C0E94870C0E94010DE0E9F1E0F2
:2008800060E070E00E94FE0F0E220E94EB0C0E94780CE02159F0E1E0F0E0E093AB08F093A6
:2008A000AC08929AE2E0F0E00E94110D0E94F50C0E94160D0E94010DECEDF5E060E070E0B0
:2008C0000E94FE0FE02129F0DF9AE3E0F0E00E94110D0E94F50C149739F4D8980E94D60C14
:2008E000E5E0F0E00E941B0D0E94200D0E94260D0E942D0D0E94870CE02129F0D89A0E94B6
:20090000D60C0E940B0D0E94200D0E94330D0E942D0D0E94780CE02129F0D89A0E94D60C78
:200920000E940B0D0E94200DE4E4F6E160E070E00E94FE0F0E942D0D0E94160DE02139F085
:20094000D89A0E94D60CE6E0F0E00E941B0D0E94F50C0E943A0D0E94010DE4E8F3E060E026
:2009600070E00E94FE0F0E942D0D0E94160DE02121F00E94D60C0E940B0D08950A921A92A2
:20098000FA926A937A938A939A93AA93BA93EA93FA93EFB7EA93A1E4B8E00E94A40C20DF52
:2009A000E991EFBFF991E991B991A9919991899179916991F9901990099018956A937A93BD
:2009C000AA93BA93EA93FA93EFB7EA93A5E4B8E00E94A40CADE7B8E00E94A40CADE3B8E047
:2009E0000E94A40CE991EFBFF991E991B991A9917991699118951A980E943F0DA130E0E013
:200A0000BE07E0E08E07E0E09E071CF01A9A0E94480D08951C98E881F9810E94520D0E94C9
:200A20001F1019F41C9A0E945D0D2296089524970E942910E0917908F0917A0860917B0864
:200A400070917C08A3ECB5EF88EC90E40E943E0FAA85BB858C859D850E948C0FDF01CB017C
:200A6000F3010E94DE0F0E94100F0E943E0FEC83FD836E837F830E94D90E9F0100E010E068
:200A800002171307A4F4E885F9850E94670DE885F9850E94720DE885F9850E94520D0E94F0
:200AA000241014F48801F7CF0F5F1F4FE9CF0E942E102E9608951A930A9300E010E0EC814F
:200AC000FD810E171F07A4F4EA81FB810E94670DEA81FB810E94720DEA81FB810E94520DC8
:200AE0000E94241014F48801F7CF0F5F1F4FE7CF19810881269608959A9905C01D98E8E046
:200B0000F0E00E94720D9A9B06C0E1E0F0E0E0939F08F093A0080E94760D119779F41D9A22
:200B2000E0E0F0E068E372E40E941A10E8E0F0E00E947B0DE0938308F093840808950E94AA
:200B4000820DA0E09B99A1E00E945D0C0E94860DE02149F01B9A4FDFB79905C0E0E0E0932C
:200B6000A708E093A8080E94820D0E948D0DA0E0B199A1E00E945D0CA0E0B799A1E00E94ED
:200B8000620C31F01B9837DFB79B02C00E94950DA0E0B799A1E00E94820C0E949C0DE021D8
:200BA00011F00E94950DA0E0B099A1E00E946C0C0E948D0D0E94860D0E22A0E0B799A1E09A
:200BC0000E945D0C0E949C0DE02131F01B9813DFB79B02C00E94950D0E94820D0E948D0D33
:200BE0000E94860D0E22A0E0B299A1E00E945D0C0E94A10D0E22D5010E94780CE02131F09B
:200C00001D980E94A30D0E947B0D5F010E94820D0E948D0D0E94860D0E22A0E0B299A1E025
:200C2000E1E00E94E30F0E220E94A10D0E22D5010E94870CE02141F01D9A0E94A30DFA93DC
:200C4000EA93F5DEAA24BB240895E5EAF6E0FA93EA939EDBDD9A08C0DD9ADC98919AE8EBAA
:200C6000F6E0FA93EA9394DBE1E0F0E008959D9B0BC00E94710CE1ECF6E00E94530C9D99FB
:200C8000FECF0E94850BF3CF0895999B0AC0939ADA98DC980E94710CE1EEF6E00E94530C20
:200CA000FFCF0895E0919308F0919408309749F4E1E0F0E02F011D9AC8DFE0939308F093EC
:200CC0009408EEEFF6E00E94AC0DE0EDF7E060E070E00E94FE0FEF93E1E1F7E00E94AC0D11
:200CE0000E94B30D0E94F60FAF91EA230E94B80D0E94780CE02151F0DC9AE1E0F0E00E9426
:200D0000BE0D0E94C30D119709F4DA9AE4E2F7E00E94AC0D0E94C80D0E94B80D0E94870C72
:200D20000E94CF0D0E94D20D0E94780CE02129F09398E1E0F0E00E94D80DE7E3F7E00E94EE
:200D4000AC0D0E94260D0E94B80D0E94870C0E94CF0D0E220E947D0C0E94780C0E94D20DE9
:200D60000E94870CE02111F00E94DD0DEAE4F7E00E94AC0D0E94330D0E94B80D0E94870C32
:200D80000E94CF0D0E220E947D0C0E94870C0E94D20D0E94870CE02111F00E94DD0DEDE52F
:200DA000F7E00E94AC0DECE7F5E160E070E00E94E10D0E94870C0E94CF0D0E220E947D0C2A
:200DC0000E94160D0E94D20D0E94870CE02111F00E94DD0DE0E7F7E00E94AC0DEEE3F7E168
:200DE00060E070E00E94E10D0E94870C0E94CF0D0E220E947D0CE3E0F0E00E94E40D0E94FD
:200E0000870CE02111F00E94DD0DE3E8F7E00E94AC0DE4E6F9E160E070E00E94E10D0E944E
:200E2000160D0E94CF0D0E220E947D0CE4E0F0E00E94E40D0E94870CE02111F00E94DD0DCC
:200E4000E6E9F7E00E94AC0DE8E5FBE160E070E00E94E10D0E94160D0E94CF0D0E220E94B3
:200E60007D0CE5E0F0E00E94E40D0E94870CE02111F00E94DD0DE9EAF7E00E94AC0DECE429
:200E8000FDE160E070E00E94E10D0E94160D0E94CF0D0E220E947D0C0E943A0D0E94D20D4C
:200EA0000E94870CE02111F00E94DD0DECEBF7E00E94AC0DEEE0FFE160E070E00E94E10D98
:200EC0000E94160D0E94CF0D0E220E947D0CE7E0F0E00E94E40D0E94870CE02111F00E9471
:200EE000DD0DEFECF7E00E94AC0D0E94B30D0E94E10D0E94870CE02129F0DD98E2E0F0E0B3
:200F00000E94BE0DE2EEF7E00E94AC0DE0E4FFE160E070E00E94E10D0E94160DE021B1F037
:200F20000E94E70D0E94EC0D0E94F30D0E94F90D0E94FE0D0E94F90D0E94040EEBE3F4E08B
:200F40000E940A0EE3E0F0E00E94BE0DA0919508B09196080E94780C0E94B80DE3E0F0E00A
:200F60000E94E80FE021B9F0E1E0F0E0E0939508F09396080E94120E11F4DA9A9398E8E638
:200F8000F1E00E940A0EE4E6F0E00E940A0EE4E0F0E00E94BE0DA0919708B09198080E941E
:200FA000780C0E94B80DE4E0F0E00E94E80FE02111F40C942C08E1E0F0E0E0939708F09319
:200FC00098080E94120E91F50E94F90D0E94040E0E94F90D0E94FE0D0E94E70D0E94F30D40
:200FE0000E94E70D0E94EC0D0E94180EEDE4F0E00E941E0E939AEAE1F4E00E941E0E45DECC
:20100000EAE1F4E00E941E0E0E94E70D0E94180E0E94E70D0E94EC0D0E94F30D0E94F90D8A
:201020000E94FE0D0E94F90D0E94040E0E94C30D119771F4E8E6F0E00E940A0E26DEE2E307
:20104000F1E00E940A0EDA98E5E2F4E00E940A0EE5E0F0E00E94BE0DA0919B08B0919C0883
:201060000E94780C0E94B80DE5E0F0E00E94E80FE02179F19198E1E0F0E0E0939B08F093F7
:201080009C080E94120E09F4DA98E7E6F2E00E940A0EEBECF7E00E940A0EE8E3F0E00E947D
:2010A0000A0EECE1F0E00E940A0E0E94F90D0E94040E0E94F90D0E94FE0D0E94E70D0E94D8
:2010C000F30D0E94E70D0E94260EE6E0F0E00E94BE0DA0919D08B0919E080E94780C0E941C
:2010E000B80D0E943A0DE02149F0B6DDE0939D08F0939E08E7E0F0E00E94BE0DE5EFF7E085
:201100000E94AC0D0E94C80D0E942C0E0E94320E0E94CF0DE02189F09298DD98EEEFF7E0F4
:20112000FA93EA939CD9E333A0E0FA07A0E06A07A0E07A0714F00E943C0EE7E0F8E00E9476
:20114000AC0D0E94B30D0E94FE0F0E942C0E0E94320E0E220E94C30D0E94780CE02189F0C5
:201160009298DD98E0E1F8E0FA93EA9378D9E134AFE1FA07A0E06A07A0E07A0714F00E949E
:201180003C0E0895E2E0F0E02F011D980E94E70D0E94EC0D0E94F30D0E94F90D0E94FE0DC9
:2011A0000E94F90D0E94040EE5E8F2E00E940A0EE2E3F0E00E940A0E9298DB9AE9E1F8E0EA
:2011C0000E940A0EE4EDF0E00E940A0EE0E0E093AB08E093AC08E4E0F0E00E941B0DDB981C
:2011E000EEEDF4E00E940A0ED998DF98E1E0F0E06F01E6E5F2E00E940A0EE0E2F3E00E940F
:201200000A0EE8E3F0E00E940A0EECE1F0E00E940A0E0E94F90D0E94040E0E94F90D0E9464
:20122000FE0D0E94E70D0E94F30D0E94E70D0E94260EE0E0E093C108E093C2080895E0E069
:20124000E0939308E0939408E093A108E093A208E093A308E093A408E0939508E0939608DA
:20126000E0939708E0939808E0939D08E0939E08E093A508E093A608E093A708E093A80892
:20128000E0939B08E0939C08E0939908E0939A080895E0E0EBBBEFEFEABBE0E0E8BBE7BB6D
:2012A000E5BBE4BBE2BBEFEFE1BBE0E0E3B9EFEFE2B9E0E0E0936200EFEFE0936100E0E0FC
:2012C000E0936500EFE1E0936400E0E0E0BFE2E0E3BFE0E0E2BFE1BFEFBDEEBDEDBDECBD21
:2012E000E7BDE6BDEBBDEABDE9BDE8BDE0937900E0937800E2E0E5BDE0E0E4BDE3BDE0935E
:201300008B00E0938A00E0938900E0938800E0938100E0938000E0938700E0938600E09301
:201320008500E0938400E0938300E0938200E0936A00EABFE9BFE1E4E7BFE0E0E0937D00FD
:20134000EAB9E0939A00E0E8E8B9E0E0E0BDE6B9EDB9E0937400E0E1EA930E94CC0BD898C4
:20136000D998DA98DB98DC98DD98DE98DF98919A929A939AE0E0F0E060EF71E4E093790895
:20138000F0937A0860937B0870937C08E0EAFFE03F01E0E0E0939F08E093A0088824992404
:2013A000E1E0F0E0E093B108F093B208AA24BB24CC24DD24E0E0E0938308E09384080E9436
:2013C000AD0C0E948C0CE0E0E0938708E09388080E94B40CE0E0E0936508E0936608E093FF
:2013E0006708E09368080E94E00C29DFD89A1C9A1A9A0E945D0D0E94480DE0E0E093B30838
:20140000E093B408E093B508E093B60844245524E0938F08E0939008E093BF08E093C008D1
:20142000E4E6F0E060E070E0E0937108F09372086093730870937408E0E0E093C108E0933D
:20144000C2080E94430E0E94480E0E944D0E0E944D0E6FD87894E0918308F09184083097BA
:2014600041F4E0919F08F091A008309709F444DBF2CFFDDBFCDB42D90E943F0DA430E0E006
:20148000BE07E0E08E07E0E09E0714F00E94480D56DBEFD8B8D80E94930C0E94EE0F0E94C8
:2014A000F00CE1E00E94E30F0E94BE0C0E94780CE021B1F1A5E7B8E00E94A40C0E94530E2D
:2014C0000E2EA0917508B09176088091770890917808E8E8F3E160E070E00E94EE0FE0215E
:2014E000F9F00E94710CE9E1F8E00E94530C0E94580E0E94570CEFE1F8E00E94530C0E94E9
:20150000710E0E94430E0E94480E0E94820EE0E0E0937508E0937608E0937708E0937808A9
:201520000E94A10D0E94F00C0E945D0CD5010E94780C0E22A091A708B091A8080E94870C80
:201540000E22A091AB08B091AC080E94870C0E220E94530E0E94BE0C0E94870CE029D9F1A6
:20156000A1DBE1E0F0E0E0938708F0938808A091A308B091A408119771F504DE60DEAFEAB9
:20158000B8E0ED91FD913196FE93EE93A0918508B09186081197B1F40E94710CEBE2F8E030
:2015A0000E94530C0E94580E0E94570CE1E3F8E00E94530C0E94710E0E94820E0E94430E3A
:2015C0000E94480EB79B02C00E94950DE0E0E0938708E09388084ECFFFCFE991F991A991CD
:2015E000B9916D917191671721F46623D1F7EE270895671BE1F3E1E008F4E2500895A991EF
:20160000B991E991F99130962AF4E095F09531966DE26D93E89480E197E20DD088EE93E06C
:201620000AD084E6992707D08AE005D06E2F10D066276C9308956627E817F90720F0639556
:20164000E81BF90BC9F7662311F416F008956894605D6D930895E881E07121F0E09165009B
:20166000E16003C0E0916500EE7FE0936500E881E07221F0E0916500E26003C0E0916500CE
:20168000ED7FE0936500E881E07421F0E0916500E46003C0E0916500EB7FE0936500E881DA
:2016A000E07821F0E0916500E86003C0E0916500E77FE093650085E08A95F1F7979A8DE0C2
:2016C0008A95F1F797988DE08A95F1F7ABC0E881EA93C1DFE881E295E883E881EA93BBDFA4
:2016E00085E88A95F1F79EC0E881F0E0E753F74FE081A981EA0FEA93EADFE981E093CD08E3
:20170000E881E093CE0822960895E2E00E94870EECE0EA93DCDFE1E00E94870EE0E0E0939A
:20172000CE08E093CD080895A881AA3031F0E091CF08A091CD08AE1768F0E0E0EA93E091B1
:20174000CE08EF5FE093CE08EA93CEDFA881AA3009F468C0E091CD08EF5FE093CD08E0917D
:201760006500E061E0936500E881EA93B0DFE0916500EF7EE093650055C01A93A981BA8134
:20178000ED91A983BA831E2FE03019F01A93CCDFF5CF188123960895E0916400E1600E9439
:2017A000900EE2600E94900EE4600E94900EE860E09364008F9AE0916400E061E093640050
:2017C0008E9A9798E0916500EF7EE09365009698E881E093CF08E058E093CB08E881E0549B
:2017E000E093CC08E4E1F0E0FA93EA930E949E0E0E94950E0E94950E0E94950EE0E2EA93A7
:201800002ADF88EC90E00197F1F7E8E2EA935FDFE4E0EA935CDFE5E8EA9359DFE6E0EA9395
:2018200056DF73DF21960895E881F981FA93EA930895FA93EA930E94ED0AE0300895E09182
:201840004108F091420860914308709144080895EC81FD81FA93EA930895F1DF0E94D10F6A
:201860000E9415100895A0E0B399A1E0E1E00E94E30F0E2EA0E0B499A1E00895E1E00E94D8
:20188000E30F0E22A0E0B599A1E00895E1E0F0E0E093B308F093B4080E94850BE0E0EA93CD
:2018A000EA930C94740BFA93EA930C94BD0BE0E0EA93E1E0EA930C94740BE0E00E94E30F2C
:2018C0000E220895E0E00E94E30FE0210895E0939108F0939208DACFE0E00E94E30F0E2EE7
:2018E00008950E94850BE0E0EA93EA930C94740BE0E0F0E00E94E80F0895A0918F08B09171
:2019000090080895E1E00E94E30F0E2E0895E1E0F0E00E94E80F0895E1E0F0E0E0938B0806
:20192000F0938C080895E0917108F09172086091730870917408A0916D08B0916E088091B7
:201940006F089091700808950E940610EF5FFF4F6F4F7F4F0E940B100895E1E0F0E0E0939C
:201960008908F0938A080895E0E0E0936108E0936208E0936308E093640808950E22A091F0
:201980008708B09188080895A0916108B091620880916308909164080895A1E6B8E0D4CF9D
:2019A000E0E0E093A908E093AA080895E0E0E0937D08E0937E08E0937F08E093800808953E
:2019C000E1E0F0E0E093BB08F093BC08E093BD08F093BE080895A091BD08B091BE08089541
:2019E0000E2EA0E0B099A1E00895A091B708B091B8080895E1E0F0E0E093B708F093B80830
:201A000008950E2EA0917D08B0917E0880917F08909180080895E0E0E093B708E093B8086D
:201A20000895E093B708F093B808C0CFE2E0F0E00E94E80F0895E093B708F093B80808952B
:201A4000D4DFE5E0F0E00E94E80FDBCFE4E9F1E160E070E00E94FE0F08950E22A091910886
:201A6000B09192080895E8E8F3E160E070E00E94FE0F0895E6E0F0E00E94E80F0895A09171
:201A80004508B091460880914708909148080895E0E0E0934508E0934608E0934708E09386
:201AA00048080895A0913D08B0913E0880913F08909140080E94DE0F0895E0E0E0933D08D7
:201AC000E0933E08E0933F08E093400808950E94DE0FE0933D08F0933E0860933F087093EE
:201AE00040080895FA93EA930C940A05A0919F08B091A0080895FA93EA930E941705E1E061
:201B0000F0E00895A0E0B099A1E0FCCEA0E0B199A1E0E1E00E94E30F0895A0E09B99A1E0D2
:201B2000E1E00E94E30F0E220895E1E0F0E0E093A708F093A8080895A091A708B091A8082F
:201B4000D7CED4DFE4CEE0E0F0E060E272E40E941A10E5E0F0E00895FA93EA930E942F0278
:201B6000DF01CB010895E0E7F7E160E070E008950E2EA091A108B091A2080895E093A10896
:201B8000F093A2080895A091B308B091B4080895E0EAFFE060E070E00E94FE0F08950E2240
:201BA000F2DFB5CE0E22A091C108B091C2080895E093C108F093C2080895939AE2E0F0E01A
:201BC000F7CF0E94FE0FD4CF0E94E80FEBCFE5E1F0E0FA93EA930895E5E0F0E0FA93EA93BE
:201BE0000E945B05F4CFE4E0F0E0FA93EA930C945B05EAE2F0E0FA93EA930895E3E0F0E0AC
:201C0000FA93EA930C945B05E2E0F0E0FA93EA930C945B05FA93EA93E1E0F0E0FA93EA9379
:201C20000C945B05E091B308F091B40830970895E6E0F0E0FA93EA930C945B05FA93EA932D
:201C4000E7E0F0E0FA93EA930C945B05E5E0F0E0FA93EA930C945B050E2EA091A308B091EB
:201C6000A40846CE0E22A091A108B091A208E7E0F0E00E94E80F0895E1E0F0E0E093A30833
:201C8000F093A4080895E0918F08F09190080895E093C308F093C4080895E8EEF3E0FA935A
:201CA000EA930C949E0EA0918508B09186082FCEE7E0EA93E0E0EA930E94740BE091AF0807
:201CC000F091B008FA93EA93E091B908F091BA08FA93EA930E94FF0AE091B908F091BA0822
:201CE000E2CDEDE0EA93E1E0EA930E94740BCBDFFA93EA93E091B908F091BA08FA93EA9359
:201D00000C94FF0AE091B908F091BA08CCCDEA930E94670BE3E0F0E0FA93EA930C949E0E92
:201D2000E0936400E09164000895E0E3EA930E942B0B88EC90E00197F1F70895E991F9913D
:201D4000309639F080ED97E00197F1F7A8953197C9F70895552342F4503811F4E0FF04C0F0
:201D60003196691F791F6BF050E8572711F45F9373C05F3F31F0660F000C57956795752F75
:201D800008955F9300200AF073C06CC050E8192E1522880F991F9527550F879550E8072E8D
:201DA0000522660F771F7527550F67950895689401C0E8945F93F2DF703818F07F3F08F4F2
:201DC0004BC056E1571BAAF4519558300EF4593030F0EFEFFFEF6FEF7FE777F91AC0772720
:201DE0005523B9F0EE0FFF1F661F771F5A95D1F710C07727583028F0EF2FF62F672F585046
:201E0000F9CF552331F076956795F795E7955A95D1F700200AF4CAD05F910895689401C099
:201E2000E894309760407040B1F0002426F0772312F40094BBD0172E7EE1112032F07A956F
:201E4000EE0FFF1F661F111CF9CFEF2FF62F612D5F938ADF5F910895EE27FF2766277727CE
:201E60005F910895EFEFFFEF6FE77FEF5F910895EFEFFFEF6FE77FE75F9108955F9386DF4C
:201E8000703851F3903841F301240894791F23F41CF300203AF3ECCF0F921F932F933F93EC
:201EA0004F93112722279927689FA0018F9F302D410D591F6B9F300D411D591F8E9F27D0C5
:201EC000BF9F25D06A9F23D0BE9F1DD0AF9F1BD0AE9F110D291F391F491F591FE32FF42F10
:201EE000652F522F4F913F912F911F910F9066232AF0550FEE1FFF1F661F02C073954BF250
:201F000029DF5F910895100D211D391F02C0200D311D491F591F08955F9338DF703821F4F9
:201F200011200AF49FCFA4CF903809F495CF01240894970B1BF4D4F30020F3CF792F1F93F3
:201F40002F933F934F9311241127222733274427552790E2AE17BF078607410730F0AE1B59
:201F6000BF0B860B410B089401C08894551F221F331F111CAA1FBB1F881F441F9A9551F7E9
:201F8000F901612D4F913F912F911F91662332F0550FEE1FFF1F661F7A9543F2DBDE5F91ED
:201FA0000895EA1BFB0B680B790B0895F09560957095E195FF4F6F4F7F4F08956F2F660F66
:201FC000660B762F0895EA17E1E009F0EE270895EA17FB07E1E009F0EE270895EA17FB076F
:201FE00068077907E1E009F0EE270895AE17BF0786079707E1E00CF0EE270895EA17FB075E
:2020000068077907E1E00CF0EE270895ED91FD916D917D9108957E936E93FE93EE930895EC
:20202000E881F9816A817B810895E883F9836A837B8308957A936A93FA93EA930895EA1718
:20204000FB07680779070895AE17BF078607970708953A932A931A930A9308953B812A81C7
:06206000198108810895BA
:00000001FF
