:040000000C949501C6
:100004000C9400000C9400000C9400000C9400006C
:100014000C9400000C9400000C9400000C9400005C
:100024000C9400000C94BC040C9400000C9400008C
:100034000C9400000C9400000C9400000C94DC045C
:100044000C9400000C9400000C9400000C9400002C
:100054000C9400000C9400000C9400000C9400001C
:100064000C9400000C9400000C9400000C9400000C
:100074000C9400000C9400000C9400000C940000FC
:100084000C9400000C94000070727A6563686F64CD
:100094007A695F6B7562656B00637A61735F6B721B
:1000A4006F6B7500706F62696572616D5F62616E1E
:1000B4006465726F6C650070727A656A617A645FF8
:1000C4006E61645F6B6C656A656D006E616B6C6517
:1000D4006A616D006F6B6C656A616E69655F626F02
:1000E400637A6E65004F4E4C494E452D484153533B
:1000F4004F00534C4F57004F4E4C494E452D32350F
:10010400300046415354004F4E4C494E452D434810
:10011400414F53004F4E4C494E452D554C54494D7B
:10012400415445004252414B205759424F525500C9
:100134004B55424B4100474C5545204C4F4144459B
:1001440044004C4F414420474C5545004272616B7A
:100154002077796D6167616E65676F2063699C6E56
:1001640069656E6961203720626172005475726E30
:10017400206F666620616E6420636865636B20731C
:10018400747265616D657273004E554D455200443D
:1001940041574B41204B4C454A55000001002D4E20
:1001A400414E00494E46000080C0110000058C00FD
:1001B4000B0011059D0013001C05A80014002F0559
:1001C400BB0009004305CF0011004C05D800110005
:1001D4005D058C000B006E059D0013007905A800D9
:1001E40014008C05BB000900A005CF001100A9056F
:1001F400D8001100BA05D8001100CB05D8000D00B5
:10020400DC05E9000500E905F6000B00EE05FB003E
:100214000500F905F6000D00FE05E90005000B06D2
:1002240006010B001006FB0005001B0606010D006D
:1002340020060B0105002D0606010D0032060B01F8
:1002440005003F06F6000D004406E90005005106CE
:1002540006011000560618010500660606010D0089
:100264006B060B010500780606010C007D062801CB
:100274000600890634010C008F063A010A009B0629
:1002840046011300A506A8000900B806CF00200007
:10029400C10650011D00E10670011300FE06A8000E
:1002A40013001107A80013002407A8001300370740
:1002B400A80013004A07A80013005D07A800130054
:1002C4007007A80013008307A80013009607A8006E
:1002D4001300A907A8001300BC07A8001300CF0748
:1002E400A8001300E207A8000900F507CF000900E1
:1002F400FE07CF0009000708CF0009001008CF004F
:10030400060019088D010C001F08930106002B0834
:100314008D010C00310893010100C708A0010200FF
:10032400CB08AC010000F894EE27ECBBF1E0F5BF7C
:10033400E5BFE0936C00F8E1F1BDE1BD8DE0A2E022
:10034400BB27ED938A95E9F780E090E1A0E0B1E066
:10035400ED930197E9F7EEEAF1E085919591009725
:1003640061F0A591B59105901590BF01F00105903C
:100374000D920197E1F7FB01F0CF8BBFEFEFEDBFDB
:10038400E0E1EEBFC0E0D5E00C9459090E94270CCF
:10039400E0E0F5E00E942C0C51F40E94320CE09352
:1003A4004908F0934A0860934B0870934C080E94E4
:1003B400270CE1E1F5E00E942C0C51F40E94320C70
:1003C400E0934D08F0934E0860934F0870935008E3
:1003D4000E94270CECE1F5E00E942C0C51F40E94E1
:1003E400320CE0935108F0935208609353087093D1
:1003F40054080E94270CEFE2F5E00E942C0C51F403
:100404000E94320CE0935508F09356086093570805
:10041400709358080E94270CE3E4F5E00E942C0C2A
:1004240051F40E94320CE0935908F0935A086093F7
:100434005B0870935C080E94270CECE4F5E00E94D2
:100444002C0C51F40E94320CE0935D08F0935E088A
:1004540060935F0870936008E4C224970E943B0C89
:10046400EDE5F5E00E942C0C51F4A0914908B091FF
:100474004A0880914B0890914C080E94400C0E94BD
:100484003B0CEEE6F5E00E942C0C51F4A0914D08D3
:10049400B0914E0880914F08909150080E94400CF2
:1004A4000E943B0CE9E7F5E00E942C0C51F4A0916A
:1004B4005108B091520880915308909154080E94B9
:1004C400400C0E943B0CECE8F5E00E942C0C51F42B
:1004D400A0915508B09156088091570890915808FA
:1004E4000E94400C0E943B0CE0EAF5E00E942C0CB8
:1004F40051F4A0915908B0915A0880915B089091E9
:100504005C080E94400C0E943B0CE9EAF5E00E9462
:100514002C0C51F4A0915D08B0915E0880915F08A5
:10052400909160080E94400C0E941F10DFC21A9331
:100534000A9300E010E00E94460C0E94510CE1E096
:100544000E94F20FE02199F0E0E0E0939108E0933B
:1005540092080E94590CE4E4F6E00E94660C0E94A2
:100564006A0CE1E5F6E00E94660C01E010E00E94EE
:10057400460C0E94700CA0E0B599A1E00E94750C95
:1005840081F0E1E0F0E00E947A0CE6E5F6E00E94FA
:10059400660C0E946A0CE6E6F6E00E94660C01E036
:1005A40010E0A0E0B399A1E00E947F0CA0E0B49910
:1005B400A1E00E94510C0E94750C81F0E2E0F0E091
:1005C4000E947A0CEBE6F6E00E94660C0E946A0C2C
:1005D400E8E7F6E00E94660C01E010E0002E012A34
:1005E40069F40E94840CEDE7F6E00E94660C0E9418
:1005F4006A0CE9E8F6E00E94660CFFCF09911991B4
:100604000895A0E09E99A1E00E947F0CA091BF08EC
:10061400B091C0080E948B0CE021B1F0E1E0F0E061
:10062400E093BF08F093C008AFE8B8E0ED91FD9106
:100634003196FE93EE930E94900C18972CF0E0E014
:10064400E0938F08E0939008A0E09E99A1E00E94B7
:10065400950CA091BF08B091C0080E949A0CE021AB
:1006640029F0E0E0E093BF08E093C00808959C9966
:1006740023C0A0918908B0918A08119731F40E948F
:10068400840CEFE8F6E00E94660CE0E0E093890851
:10069400E0938A080E949F0CE1E0F0E0E093850873
:1006A400F09386080E94A60C0E94331024F4ADE651
:1006B400B8E00E94B70C1FC0A0918B08B0918C08C1
:1006C400119731F40E94840CEBE9F6E00E94660C69
:1006D4000E94C00CE0E0E0936D08E0936E08E093A4
:1006E4006F08E0937008E0938B08E0938C08E09324
:1006F4008508E093860808950E94C70CA0E0B0998D
:10070400A1E00E947F0CD5010E948B0C0E94D10CA9
:100714000E949A0CE029B1F0A0918708B091880852
:100724000E948B0C0E2EA091BB08B091BC080E94B5
:100734009A0CE02131F09298E0E0E093BB08E0935A
:10074400BC084BC0929949C00E94D70CA035E3EC79
:10075400BE07E0E08E07E0E09E071CF40E94E00C78
:10076400F3CF0E94D70CA03AE6E8BE07E1E08E077B
:10077400E0E09E0734F40E94E00CDF980E94E30C52
:10078400F0CF0E94D70CA03CE4EDBE07E1E08E0759
:10079400E0E09E072CF40E94E00C0E94E30CF1CFF1
:1007A4000E94D70CA839EBEABE07E2E08E07E0E02E
:1007B4009E072CF40E94E00C0E94E30CF1CF929A65
:1007C4000E94E90CE0E0E0936908E0936A08E09392
:1007D4006B08E0936C080E94F30C08950E94FE0CD1
:1007E4000E949A0C0E94030D0E94750C31F1A0E046
:1007F400B699A1E00E947F0C0E94080D0E948B0C08
:10080400E02121F00E94E90C0E940D0D0E94080DC8
:100814000E949A0C0E94140DE0E1F7E260E070E09F
:100824000E940D10E02149F00E94E90C0E941E0D67
:10083400E0E0E093BD08E093BE08A0E0B699A1E033
:100844000E947F0C0E94080D0E948B0C0E22A0E0D7
:10085400B099A1E00E94700C0E94FE0C0E948B0CC7
:10086400E02151F00E94E90C0E940D0DE1E0F0E05E
:10087400E093AB08F093AC080E94080D0E949A0C18
:100884000E94140DE0E9F1E060E070E00E940D10B8
:100894000E220E94FE0C0E948B0CE02129F0929AF9
:1008A400E2E0F0E00E94240D0E94080D0E94290D50
:1008B4000E94140DECEDF5E060E070E00E940D1074
:1008C400E02129F0DF9AE3E0F0E00E94240D0E9489
:1008D400080D149739F4D8980E94E90CE5E0F0E08B
:1008E4000E942E0D0E94330D0E94390D0E94400D6E
:1008F4000E949A0CE02129F0D89A0E94E90C0E94E7
:100904001E0D0E94330DE8E8F3E160E070E00E9400
:10091400460D0E948B0CE02129F0D89A0E94E90C24
:100924000E941E0D0E94330DE4E4F6E160E070E0E5
:100934000E94460D0E94290DE02139F0D89A0E94A8
:10094400E90CE6E0F0E00E942E0D0E94080D0E94E2
:10095400490D0E94140DE4E8F3E060E070E00E94A9
:10096400460D0E94290DE02121F00E94E90C0E940D
:100974001E0D08950A921A92FA926A937A938A93B0
:100984009A93AA93BA93EA93FA93EFB7EA93A1E4FA
:10099400B8E00E94B70C22DFE991EFBFF991E99129
:1009A400B991A9919991899179916991F990199045
:1009B400099018956A937A93AA93BA93EA93FA934F
:1009C400EFB7EA93A5E4B8E00E94B70CADE7B8E04E
:1009D4000E94B70CADE3B8E00E94B70CE991EFBFF9
:1009E400F991E991B991A9917991699118951A9818
:1009F4000E944E0DA130E0E0BE07E0E08E07E0E08B
:100A04009E071CF01A9A0E94570D08951C98E881BD
:100A1400F9810E94610D0E942E1019F41C9A0E9403
:100A24006C0D2296089524970E943810E09179085D
:100A3400F0917A0860917B0870917C08A3ECB5EF83
:100A440088EC90E40E944D0FAA85BB858C859D851A
:100A54000E949B0FDF01CB01F3010E94ED0F0E9466
:100A64001F0F0E944D0FEC83FD836E837F830E94D2
:100A7400E80E9F0100E010E002171307A4F4E885D4
:100A8400F9850E94760DE885F9850E94810DE88537
:100A9400F9850E94610D0E94331014F48801F7CF88
:100AA4000F5F1F4FE9CF0E943D102E9608951A93B1
:100AB4000A9300E010E0EC81FD810E171F07A4F4F7
:100AC400EA81FB810E94760DEA81FB810E94810DFF
:100AD400EA81FB810E94610D0E94331014F48801A5
:100AE400F7CF0F5F1F4FE7CF19810881269608952E
:100AF4009A9905C01D98E8E0F0E00E94810D9A9B48
:100B040006C0E1E0F0E0E0939F08F093A0080E94A3
:100B1400850D119779F41D9AE0E0F0E068E372E442
:100B24000E942910E8E0F0E00E948A0DE093830817
:100B3400F093840808950E94910DA0E09B99A1E090
:100B44000E94700C0E94950DE02149F01B9A4FDF22
:100B5400B79905C0E0E0E093A708E093A8080E94D5
:100B6400910D0E949C0DA0E0B199A1E00E94700C2F
:100B7400A0E0B799A1E00E94750C31F01B9837DF13
:100B8400B79B02C00E94A40DA0E0B799A1E00E9407
:100B9400950C0E94AB0DE02111F00E94A40DA0E081
:100BA400B099A1E00E947F0C0E949C0D0E94950DBB
:100BB4000E22A0E0B799A1E00E94700C0E94AB0D38
:100BC400E02131F01B9813DFB79B02C00E94A40DF3
:100BD4000E94910D0E949C0D0E94950D0E22A0E092
:100BE400B299A1E00E94700C0E94B00D0E22D501B2
:100BF4000E948B0CE02131F01D980E94B20D0E94DE
:100C04008A0D5F010E94910D0E949C0D0E94950D1A
:100C14000E22A0E0B299A1E0E1E00E94F20F0E22C0
:100C24000E94B00D0E22D5010E949A0CE02141F0E1
:100C34001D9A0E94B20DFA93EA93F5DEAA24BB240E
:100C44000895E5EAF6E0FA93EA93A0DBDC9ADD9AEC
:100C540008C0DD9ADC98919AE8EBF6E0FA93EA93FF
:100C640095DBE1E0F0E008959D9B0BC00E94840CAD
:100C7400E1ECF6E00E94660C9D99FECF0E94980B71
:100C8400F3CF0895999B0AC0939ADA98DC980E944E
:100C9400840CE1EEF6E00E94660CFFCF0895E0912B
:100CA4009308F0919408309749F4E1E0F0E02F01C3
:100CB4001D9AC7DFE0939308F0939408EEEFF6E0F3
:100CC4000E94BB0DE0EDF7E060E070E00E940D10C3
:100CD400EF93E1E1F7E00E94BB0DE0E7F7E160E0AC
:100CE40070E00E940510AF91EA230E94C20D0E9499
:100CF4008B0CE02169F0E1E0F0E00E94C80DE1E036
:100D0400F0E00E94CD0D0E94D20D119709F4DA9AF9
:100D1400E4E2F7E00E94BB0DE0E0F0E060E070E0A8
:100D24000E94D70D0E94DF0D0E94E20D0E948B0CE1
:100D3400E02129F09398E1E0F0E00E94E80DE7E378
:100D4400F7E00E94BB0DE8EEF3E060E070E00E9483
:100D5400D70D0E94DF0D0E220E94900C0E948B0C76
:100D64000E94E20D0E949A0CE02111F00E94ED0D08
:100D7400EAE4F7E00E94BB0DE8E7F5E060E070E02C
:100D84000E94D70D0E94DF0D0E220E94900C0E943B
:100D94009A0C0E94E20D0E949A0CE02111F00E942C
:100DA400ED0DEDE5F7E00E94BB0DE8E0F7E060E053
:100DB40070E00E94D70D0E94DF0D0E220E94900C5D
:100DC4000E94290D0E94E20D0E949A0CE02111F06C
:100DD4000E94ED0DE0E7F7E00E94BB0DE8E9F8E0C2
:100DE40060E070E00E94D70D0E94DF0D0E220E9489
:100DF400900CE3E0F0E00E94F10D0E949A0CE021D7
:100E040011F00E94ED0DE3E8F7E00E94BB0DE8E26B
:100E1400FAE060E070E00E94D70D0E94DF0D0E2220
:100E24000E94900CE4E0F0E00E94F10D0E949A0C04
:100E3400E02111F00E94ED0DE6E9F7E00E94BB0D00
:100E4400E0EFFAE060E070E00E94D70D0E94DF0D51
:100E54000E220E94900CE5E0F0E00E94F10D0E9449
:100E64009A0CE02111F00E94ED0DE9EAF7E00E94EE
:100E7400BB0DE0E8FCE060E070E00E94D70D0E944A
:100E8400DF0D0E220E94900C0E94490D0E94E20D7B
:100E94000E949A0CE02111F00E94ED0DECEBF7E0BA
:100EA4000E94BB0DE0E1FEE060E070E00E94D70D1F
:100EB4000E94DF0D0E220E94900CE7E0F0E00E94F9
:100EC400F10D0E949A0CE02111F00E94ED0DEFEC5F
:100ED400F7E00E94BB0D0E94390D0E94C20D0E94D2
:100EE4009A0CE02129F0DD98E2E0F0E00E94CD0DBB
:100EF400E2EEF7E00E94BB0DECE7F5E160E070E0A4
:100F04000E940D100E2EA091C508B091C6080E9433
:100F1400290DE021D1F00E94F40D0E94F90D0E94E8
:100F2400000E0E94060E0E940B0E0E94060E0E94E6
:100F3400110EEBE3F4E00E94170EE3E0F0E00E94F0
:100F4400C80DE3E0F0E00E94CD0DA0919508B091AA
:100F540096080E948B0C0E94C20DE3E0F0E00E9410
:100F6400F70FE021B9F0E1E0F0E0E0939508F093A9
:100F740096080E941F0E11F4DA9A9398E8E6F1E0BD
:100F84000E94170EE4E6F0E00E94170EE4E0F0E0A1
:100F94000E94C80DA0919708B09198080E948B0CEC
:100FA4000E94C20DE4E0F0E00E94F70FE02111F48A
:100FB4000C943408E1E0F0E0E0939708F09398088B
:100FC4000E941F0E91F50E94060E0E94110E0E94AF
:100FD400060E0E940B0E0E94F40D0E94000E0E9449
:100FE400F40D0E94F90D0E94250EEDE4F0E00E943C
:100FF4002B0E939AEAE1F4E00E942B0E43DEEAE121
:10100400F4E00E942B0E0E94F40D0E94250E0E9413
:10101400F40D0E94F90D0E94000E0E94060E0E941B
:101024000B0E0E94060E0E94110E0E94D20D119703
:10103400A9F4E8E6F0E00E94170E24DEE2E3F1E012
:101044000E94170EE8ECF0E00E94170EE8ECF0E0C6
:101054000E94170EE5E9F2E00E94170EE5E0F0E0C9
:101064000E94C80DA0919B08B0919C080E948B0C13
:101074000E94C20DE5E0F0E00E94F70FE02181F14B
:101084009198E1E0F0E0E0939B08F0939C080E94C3
:101094001F0E09F4DA98E7E6F2E00E94170EDA98D8
:1010A400EBECF7E00E94170EE8E3F0E00E94170E65
:1010B400ECE1F0E00E94170E0E94060E0E94110E51
:1010C4000E94060E0E940B0E0E94F40D0E94000E58
:1010D4000E94F40D0E94330EE6E0F0E00E94C80D79
:1010E400A0919D08B0919E080E948B0C0E94C20D95
:1010F4000E94490DE02149F0ACDDE0939D08F09396
:101104009E08E7E0F0E00E94C80DE5EFF7E00E94DA
:10111400BB0DE0EAFFE060E070E00E94390E0E943F
:10112400410E0E94DF0DE02189F09298DD98EEEFE8
:10113400F7E0FA93EA9391D9E333A0E0FA07A0E049
:101144006A07A0E07A0714F00E944B0EE7E0F8E08B
:101154000E94BB0DE0E7F7E160E070E00E94390E09
:101164000E94410E0E220E94D20D0E948B0CE0219F
:10117400B1F09298DD98E0E1F8E0FA93EA936DD942
:10118400E134AFE1FA07A0E06A07A0E07A073CF097
:101194000E944B0EE0E0E093C508E093C608089572
:1011A400E2E0F0E02F011D980E94F40D0E94F90D79
:1011B4000E94000E0E94060E0E940B0E0E94060E54
:1011C4000E94110EE5E8F2E00E94170EE2E3F0E05F
:1011D4000E94170E9298DB9AE9E1F8E00E94170E3C
:1011E400E4EDF0E00E94170EE0E0E093AB08E0933A
:1011F400AC08E4E0F0E00E942E0DDB98EEEDF4E0A4
:101204000E94170ED998DF98E1E0F0E06F01E6E55F
:10121400F2E00E94170EE0E2F3E00E94170EE8E30A
:10122400F0E00E94170EECE1F0E00E94170E0E941D
:10123400060E0E94110E0E94060E0E940B0E0E94C2
:10124400F40D0E94000E0E94F40D0E94330EE0E0A3
:10125400E093C108E093C2080895E0E0E0939308A6
:10126400E0939408E093A108E093A208E093A30814
:10127400E093A408E0939508E0939608E093970818
:10128400E0939808E0939D08E0939E08E093A508F6
:10129400E093A608E093A708E093A808E0939B08CE
:1012A400E0939C08E0939908E0939A080895E0E09D
:1012B400EBBBEFEFEABBE0E0E8BBE7BBE5BBE4BBBD
:1012C400E2BBEFEFE1BBE0E0E3B9EFEFE2B9E0E06E
:1012D400E0936200EFEFE0936100E0E0E0936500EB
:1012E400EFE1E0936400E0E0E0BFE2E0E3BFE0E0D0
:1012F400E2BFE1BFEFBDEEBDEDBDECBDE7BDE6BDB8
:10130400EBBDEABDE9BDE8BDE0937900E093780068
:10131400E2E0E5BDE0E0E4BDE3BDE0938B00E093F3
:101324008A00E0938900E0938800E0938100E093D1
:101334008000E0938700E0938600E0938500E093CB
:101344008400E0938300E0938200E0936A00EABFA4
:10135400E9BFE1E4E7BFE0E0E0937D00EAB9E093B0
:101364009A00E0E8E8B9E0E0E0BDE6B9EDB9E09361
:101374007400E0E1EA930E94DF0BD898D998DA98D8
:10138400DB98DC98DD98DE98DF98919A929A939A8C
:10139400E0E0F0E060EF71E4E0937908F0937A081C
:1013A40060937B0870937C08E0EAFFE03F01E0E093
:1013B400E0939F08E093A00888249924E1E0F0E0FA
:1013C400E093B108F093B208AA24BB24CC24DD2412
:1013D400E0E0E0938308E09384080E94C00C0E943C
:1013E4009F0CE0E0E0938708E09388080E94C70C14
:1013F400E0E0E0936508E0936608E0936708E09313
:1014040068080E94F30C29DFD89A1C9A1A9A0E9441
:101414006C0D0E94570DE0E0E093B308E093B4082C
:10142400E093B508E093B60844245524E3E0F0E0E3
:10143400E0938F08F0939008E0E0E093BF08E09316
:10144400C008E4E6F0E060E070E0E0937108F09337
:1014540072086093730870937408E0E0E093C10825
:10146400E093C2080E94520E0E94570E0E945C0E26
:101474000E945C0E5CD87894E0918308F091840813
:10148400309741F4E0919F08F091A008309709F457
:101494002FDBF2CFE9DBE8DB2FD90E944E0DA4301D
:1014A400E0E0BE07E0E08E07E0E09E0714F00E9453
:1014B400570D41DBDCD8A5D80E94A60C0E94FD0F75
:1014C4000E94030DE1E00E94F20F0E94D10C0E94E1
:1014D4008B0CE021B1F1A5E7B8E00E94B70C0E94A3
:1014E400620E0E2EA0917508B0917608809177084F
:1014F40090917808E8E8F3E160E070E00E94FD0F65
:10150400E021F9F00E94840CE9E1F8E00E94660C05
:101514000E94670E0E946A0CEFE1F8E00E94660CDC
:101524000E94800E0E94520E0E94570E0E94910E3D
:10153400E0E0E0937508E0937608E0937708E093A1
:1015440078080E94B00D0E94030D0E94700CD50112
:101554000E948B0C0E22A091A708B091A8080E94AB
:101564009A0C0E22A091AB08B091AC080E949A0C80
:101574000E220E94620E0E94D10C0E949A0CE02955
:10158400D9F18DDBE1E0F0E0E0938708F09388087F
:10159400A091A308B091A408119771F501DE5DDE56
:1015A400AFEAB8E0ED91FD913196FE93EE93A091F0
:1015B4008508B09186081197B1F40E94840CEBE27F
:1015C400F8E00E94660C0E94670E0E946A0CE1E338
:1015D400F8E00E94660C0E94800E0E94910E0E9408
:1015E400520E0E94570EB79B02C00E94A40DE0E069
:1015F400E0938708E09388084ECFFFCFE991F991F3
:10160400A991B9916D917191671721F46623D1F76E
:10161400EE270895671BE1F3E1E008F4E250089532
:10162400A991B991E991F99130962AF4E095F09550
:1016340031966DE26D93E89480E197E20DD088EEE7
:1016440093E00AD084E6992707D08AE005D06E2F6C
:1016540010D066276C9308956627E817F90720F0E1
:101664006395E81BF90BC9F7662311F416F0089586
:101674006894605D6D930895E881E07121F0E091D4
:101684006500E16003C0E0916500EE7FE0936500D2
:10169400E881E07221F0E0916500E26003C0E0912E
:1016A4006500ED7FE0936500E881E07421F0E0914E
:1016B4006500E46003C0E0916500EB7FE0936500A2
:1016C400E881E07821F0E0916500E86003C0E091F2
:1016D4006500E77FE093650085E08A95F1F7979AC6
:1016E4008DE08A95F1F797988DE08A95F1F7ABC074
:1016F400E881EA93C1DFE881E295E883E881EA932F
:10170400BBDF85E88A95F1F79EC0E881F0E0E553F8
:10171400F74FE081A981EA0FEA93EADFE981E093D8
:10172400CF08E881E093D00822960895E2E00E9471
:10173400960EECE0EA93DCDFE1E00E94960EE0E036
:10174400E093D008E093CF080895A881AA3031F03F
:10175400E091D108A091CF08AE1768F0E0E0EA93D9
:10176400E091D008EF5FE093D008EA93CEDFA88140
:10177400AA3009F468C0E091CF08EF5FE093CF0886
:10178400E0916500E061E0936500E881EA93B0DFF1
:10179400E0916500EF7EE093650055C01A93A9813E
:1017A400BA81ED91A983BA831E2FE03019F01A9300
:1017B400CCDFF5CF188123960895E0916400E160B1
:1017C4000E949F0EE2600E949F0EE4600E949F0EA2
:1017D400E860E09364008F9AE0916400E061E09334
:1017E40064008E9A9798E0916500EF7EE09365001F
:1017F4009698E881E093D108E058E093CD08E88119
:10180400E054E093CE08E4E1F0E0FA93EA930E9416
:10181400AD0E0E94A40E0E94A40E0E94A40EE0E24B
:10182400EA932ADF88EC90E00197F1F7E8E2EA9383
:101834005FDFE4E0EA935CDFE5E8EA9359DFE6E0A2
:10184400EA9356DF73DF21960895E881F981FA93CC
:10185400EA930895FA93EA930E94000BE030089506
:10186400E0914108F0914208609143087091440866
:101874000895EC81FD81FA93EA930895F1DF0E94C3
:10188400E00F0E9424100895A0E0B399A1E0E1E0E4
:101894000E94F20F0E2EA0E0B499A1E00895E1E0B9
:1018A4000E94F20F0E22A0E0B599A1E00895E1E0B4
:1018B400F0E0E093B308F093B4080E94980BE0E0E2
:1018C400EA93EA930C94870BFA93EA930C94D00B63
:1018D400E0E0EA93E1E0EA930C94870BE0E00E94F5
:1018E400F20F0E220895E0E00E94F20FE021089525
:1018F400E0939108F0939208DACFE0E00E94F20FAF
:101904000E2E08950E94980BE0E0EA93EA930C945B
:10191400870BE0E0F0E00E94F70F0895A0918F0894
:10192400B09190080895E1E00E94F20F0E2E089500
:10193400E1E0F0E00E94F70F0895E1E0F0E0E093C9
:101944008B08F0938C080895E0917108F091720867
:101954006091730870917408A0916D08B0916E083D
:1019640080916F089091700808950E941510EF5FA0
:10197400FF4F6F4F7F4F0E941A100895E1E0F0E08F
:10198400E0938908F0938A080895E0E0E093610801
:10199400E0936208E0936308E093640808950E22DC
:1019A400A0918708B09188080895A0916108B0912A
:1019B400620880916308909164080895A1E6B8E0F4
:1019C400D4CFE0E0E093A908E093AA080895E0E00A
:1019D400E0937D08E0937E08E0937F08E09380081D
:1019E4000895E1E0F0E0E093BB08F093BC08E093D5
:1019F400BD08F093BE080895A091BD08B091BE083B
:101A040008950E2EA0E0B099A1E00895A091B70822
:101A1400B091B8080895E1E0F0E0E093B708F093DE
:101A2400B80808950E2EA0917D08B0917E0880918B
:101A34007F08909180080895E0E0E093B708E09370
:101A4400B8080895E093B708F093B808C0CFE2E06F
:101A5400F0E00E94F70F0895E093B708F093B808F8
:101A64000895D4DFE5E0F0E00E94F70FDBCFE4E96E
:101A7400F1E160E070E00E940D1008950E22A09143
:101A84009108B091920808950E940D10F7CFE6E0F6
:101A9400F0E00E94F70F0895A0914508B091460820
:101AA40080914708909148080895E0E0E093450844
:101AB400E0934608E0934708E09348080895A0910E
:101AC4003D08B0913E0880913F08909140080E94E3
:101AD400ED0F0895E0E0E0933D08E0933E08E093C5
:101AE4003F08E093400808950E94ED0FE0933D08FD
:101AF400F0933E0860933F08709340080895FA936A
:101B0400EA930C940805A0919F08B091A008089549
:101B1400FA93EA930E941505E1E0F0E00895A0E04D
:101B2400B099A1E000CFA0E0B199A1E0E1E00E946A
:101B3400F20F0895A0E09B99A1E0E1E00E94F20F6A
:101B44000E220895E1E0F0E0E093A708F093A808DE
:101B54000895A091A708B091A808DBCED4DFE8CE01
:101B6400E0E0F0E060E272E40E942910E5E0F0E0D9
:101B74000895FA93EA930E942F02DF01CB0108959E
:101B84000E2EA091A108B091A2080895E093A10897
:101B9400F093A2080895E093C508F093C608089549
:101BA400A091B308B091B40808950E940D100E2EB0
:101BB400A0919308B0919408BBCE0E22F1DFB8CE69
:101BC4000E22A091C108B091C2080895E093C10803
:101BD400F093C2080895939AE2E0F0E0F7CF0E94F0
:101BE400F70FEECFE5E1F0E0FA93EA930895E5E02C
:101BF400F0E0FA93EA930E945905F4CFE4E0F0E0B0
:101C0400FA93EA930C945905EAE2F0E0FA93EA9322
:101C14000895E3E0F0E0FA93EA930C945905E2E0C6
:101C2400F0E0FA93EA930C945905FA93EA93E1E00D
:101C3400F0E0FA93EA930C945905E091B308F0911B
:101C4400B40830970895E6E0F0E0FA93EA930C9430
:101C54005905FA93EA93E7E0F0E0FA93EA930C94D7
:101C64005905E5E0F0E0FA93EA930C9459050E94D3
:101C74000D100E2EA091A308B091A4084ACE0E22F6
:101C8400A091A108B091A208E7E0F0E00E94F70F4C
:101C94000895E1E0F0E0E093A308F093A408089528
:101CA400E0918F08F09190080895E093C308F093B1
:101CB400C4080895E8EEF3E0FA93EA930C94AD0EA9
:101CC400A0918508B091860833CEE7E0EA93E0E07E
:101CD400EA930E94870BE091AF08F091B008FA9361
:101CE400EA93E091B908F091BA08FA93EA930E9452
:101CF400120BE091B908F091BA08E6CDEDE0EA9351
:101D0400E1E0EA930E94870BCBDFFA93EA93E09138
:101D1400B908F091BA08FA93EA930C94120BE09183
:101D2400B908F091BA08D0CDEA930E947A0BE3E0A7
:101D3400F0E0FA93EA930C94AD0EE0936400E09122
:101D440064000895E0E3EA930E943E0B88EC90E07F
:101D54000197F1F70895E991F991309639F080ED02
:101D640097E00197F1F7A8953197C9F7089555239E
:101D740042F4503811F4E0FF04C03196691F791F12
:101D84006BF050E8572711F45F9373C05F3F31F055
:101D9400660F000C57956795752F08955F93002083
:101DA4000AF073C06CC050E8192E1522880F991FD1
:101DB4009527550F879550E8072E0522660F771F44
:101DC4007527550F67950895689401C0E8945F934B
:101DD400F2DF703818F07F3F08F44BC056E1571B10
:101DE400AAF4519558300EF4593030F0EFEFFFEF6C
:101DF4006FEF7FE777F91AC077275523B9F0EE0F15
:101E0400FF1F661F771F5A95D1F710C077275830E8
:101E140028F0EF2FF62F672F5850F9CF552331F0C4
:101E240076956795F795E7955A95D1F700200AF4CA
:101E3400CAD05F910895689401C0E89430976040D7
:101E44007040B1F0002426F0772312F40094BBD044
:101E5400172E7EE1112032F07A95EE0FFF1F661FD8
:101E6400111CF9CFEF2FF62F612D5F938ADF5F915D
:101E74000895EE27FF27662777275F910895EFEFF0
:101E8400FFEF6FE77FEF5F910895EFEFFFEF6FE7ED
:101E94007FE75F9108955F9386DF703851F3903840
:101EA40041F301240894791F23F41CF300203AF32E
:101EB400ECCF0F921F932F933F934F931127222719
:101EC4009927689FA0018F9F302D410D591F6B9F4B
:101ED400300D411D591F8E9F27D0BF9F25D06A9F6B
:101EE40023D0BE9F1DD0AF9F1BD0AE9F110D291FC5
:101EF400391F491F591FE32FF42F652F522F4F917C
:101F04003F912F911F910F9066232AF0550FEE1FDA
:101F1400FF1F661F02C073954BF229DF5F9108957E
:101F2400100D211D391F02C0200D311D491F591FDD
:101F340008955F9338DF703821F411200AF49FCF9D
:101F4400A4CF903809F495CF01240894970B1BF47F
:101F5400D4F30020F3CF792F1F932F933F934F9304
:101F640011241127222733274427552790E2AE173F
:101F7400BF078607410730F0AE1BBF0B860B410B32
:101F8400089401C08894551F221F331F111CAA1FD7
:101F9400BB1F881F441F9A9551F7F901612D4F917A
:101FA4003F912F911F91662332F0550FEE1FFF1FB3
:101FB400661F7A9543F2DBDE5F910895EA1BFB0B03
:101FC400680B790B0895F09560957095E195FF4F36
:101FD4006F4F7F4F08956F2F660F660B762F08950E
:101FE400EA17E1E009F0EE270895EA17FB07E1E0BC
:101FF40009F0EE270895EA17FB0768077907E1E07F
:1020040009F0EE270895AE17BF0786079707E1E0AA
:102014000CF0EE270895EA17FB0768077907E1E05B
:102024000CF0EE270895ED91FD916D917D91089549
:102034007E936E93FE93EE930895E881F9816A810D
:102044007B810895E883F9836A837B8308957A9377
:102054006A93FA93EA930895EA17FB0768077907E6
:102064000895AE17BF078607970708953A932A93F2
:102074001A930A9308953B812A811981088108954E
:00000001FF
